{
  "_format": "hh-sol-artifact-1",
  "contractName": "ERC4626PlusVaultAssetManager",
  "sourceName": "contracts/ERC4626PlusVaultAssetManager.sol",
  "abi": [
    {
      "inputs": [
        {
          "internalType": "contract IERC20Metadata",
          "name": "asset_",
          "type": "address"
        },
        {
          "internalType": "contract IERC4626",
          "name": "vault_",
          "type": "address"
        },
        {
          "internalType": "contract IERC4626",
          "name": "discretionaryVault_",
          "type": "address"
        }
      ],
      "stateMutability": "nonpayable",
      "type": "constructor"
    },
    {
      "anonymous": false,
      "inputs": [
        {
          "indexed": false,
          "internalType": "int256",
          "name": "earnings",
          "type": "int256"
        }
      ],
      "name": "EarningsRecorded",
      "type": "event"
    },
    {
      "anonymous": false,
      "inputs": [
        {
          "indexed": true,
          "internalType": "enum IAccessManager.GovernanceActions",
          "name": "action",
          "type": "uint8"
        },
        {
          "indexed": false,
          "internalType": "uint256",
          "name": "value",
          "type": "uint256"
        }
      ],
      "name": "GovernanceAction",
      "type": "event"
    },
    {
      "anonymous": false,
      "inputs": [
        {
          "indexed": false,
          "internalType": "uint256",
          "name": "amount",
          "type": "uint256"
        }
      ],
      "name": "MoneyDeinvested",
      "type": "event"
    },
    {
      "anonymous": false,
      "inputs": [
        {
          "indexed": false,
          "internalType": "uint256",
          "name": "amount",
          "type": "uint256"
        }
      ],
      "name": "MoneyInvested",
      "type": "event"
    },
    {
      "inputs": [],
      "name": "connect",
      "outputs": [],
      "stateMutability": "nonpayable",
      "type": "function"
    },
    {
      "inputs": [],
      "name": "deinvestAll",
      "outputs": [
        {
          "internalType": "int256",
          "name": "earnings",
          "type": "int256"
        }
      ],
      "stateMutability": "nonpayable",
      "type": "function"
    },
    {
      "inputs": [
        {
          "internalType": "uint256",
          "name": "amount",
          "type": "uint256"
        }
      ],
      "name": "discretionaryToVault",
      "outputs": [],
      "stateMutability": "nonpayable",
      "type": "function"
    },
    {
      "inputs": [],
      "name": "getInvestmentValue",
      "outputs": [
        {
          "internalType": "uint256",
          "name": "",
          "type": "uint256"
        }
      ],
      "stateMutability": "view",
      "type": "function"
    },
    {
      "inputs": [],
      "name": "liquidityMax",
      "outputs": [
        {
          "internalType": "uint256",
          "name": "",
          "type": "uint256"
        }
      ],
      "stateMutability": "view",
      "type": "function"
    },
    {
      "inputs": [],
      "name": "liquidityMiddle",
      "outputs": [
        {
          "internalType": "uint256",
          "name": "",
          "type": "uint256"
        }
      ],
      "stateMutability": "view",
      "type": "function"
    },
    {
      "inputs": [],
      "name": "liquidityMin",
      "outputs": [
        {
          "internalType": "uint256",
          "name": "",
          "type": "uint256"
        }
      ],
      "stateMutability": "view",
      "type": "function"
    },
    {
      "inputs": [],
      "name": "rebalance",
      "outputs": [],
      "stateMutability": "nonpayable",
      "type": "function"
    },
    {
      "inputs": [],
      "name": "recordEarnings",
      "outputs": [
        {
          "internalType": "int256",
          "name": "",
          "type": "int256"
        }
      ],
      "stateMutability": "nonpayable",
      "type": "function"
    },
    {
      "inputs": [
        {
          "internalType": "uint256",
          "name": "paymentAmount",
          "type": "uint256"
        }
      ],
      "name": "refillWallet",
      "outputs": [
        {
          "internalType": "uint256",
          "name": "deinvest",
          "type": "uint256"
        }
      ],
      "stateMutability": "nonpayable",
      "type": "function"
    },
    {
      "inputs": [
        {
          "internalType": "uint256",
          "name": "min",
          "type": "uint256"
        },
        {
          "internalType": "uint256",
          "name": "middle",
          "type": "uint256"
        },
        {
          "internalType": "uint256",
          "name": "max",
          "type": "uint256"
        }
      ],
      "name": "setLiquidityThresholds",
      "outputs": [],
      "stateMutability": "nonpayable",
      "type": "function"
    },
    {
      "inputs": [
        {
          "internalType": "bytes4",
          "name": "interfaceId",
          "type": "bytes4"
        }
      ],
      "name": "supportsInterface",
      "outputs": [
        {
          "internalType": "bool",
          "name": "",
          "type": "bool"
        }
      ],
      "stateMutability": "view",
      "type": "function"
    },
    {
      "inputs": [
        {
          "internalType": "uint256",
          "name": "amount",
          "type": "uint256"
        }
      ],
      "name": "vaultToDiscretionary",
      "outputs": [],
      "stateMutability": "nonpayable",
      "type": "function"
    }
  ],
  "bytecode": "0x60e06040523480156200001157600080fd5b506040516200222438038062002224833981016040819052620000349162000415565b8282816001600160a01b038116620000b95760405162461bcd60e51b815260206004820152603c60248201527f4c69717569646974795468726573686f6c6441737365744d616e616765723a2060448201527f61737365742063616e6e6f74206265207a65726f20616464726573730000000060648201526084015b60405180910390fd5b6001600160a01b039081166080528116620001315760405162461bcd60e51b815260206004820152603160248201527f4552433436323641737365744d616e616765723a207661756c742063616e6e6f60448201527074206265207a65726f206164647265737360781b6064820152608401620000b0565b806001600160a01b03166338d52e0f6040518163ffffffff1660e01b8152600401602060405180830381865afa15801562000170573d6000803e3d6000fd5b505050506040513d601f19601f8201168201806040525081019062000196919062000469565b6001600160a01b0316826001600160a01b0316146200021e5760405162461bcd60e51b815260206004820152603360248201527f4552433436323641737365744d616e616765723a207661756c74206d7573742060448201527f68617665207468652073616d65206173736574000000000000000000000000006064820152608401620000b0565b6001600160a01b0390811660a05282169050620002935760405162461bcd60e51b815260206004820152603a60248201526000805160206200220483398151915260448201527f756c742063616e6e6f74206265207a65726f20616464726573730000000000006064820152608401620000b0565b806001600160a01b03166338d52e0f6040518163ffffffff1660e01b8152600401602060405180830381865afa158015620002d2573d6000803e3d6000fd5b505050506040513d601f19601f82011682018060405250810190620002f8919062000469565b6001600160a01b0316836001600160a01b0316146200036f5760405162461bcd60e51b815260206004820152603c60248201526000805160206200220483398151915260448201527f756c74206d7573742068617665207468652073616d65206173736574000000006064820152608401620000b0565b806001600160a01b0316826001600160a01b031603620003e75760405162461bcd60e51b815260206004820152603660248201526000805160206200220483398151915260448201527f756c7473206d75737420626520646966666572656e74000000000000000000006064820152608401620000b0565b6001600160a01b031660c05250620004909050565b6001600160a01b03811681146200041257600080fd5b50565b6000806000606084860312156200042b57600080fd5b83516200043881620003fc565b60208501519093506200044b81620003fc565b60408501519092506200045e81620003fc565b809150509250925092565b6000602082840312156200047c57600080fd5b81516200048981620003fc565b9392505050565b60805160a05160c051611c956200056f600039600081816106f2015281816107ee0152818161090801528181610c4d01528181610d9101528181610f5d01528181610ff2015261143501526000818161088b0152818161093101528181610b2701528181610bb401528181610e64015281816113140152818161139e015281816115e401526116520152600081816101b4015281816102a7015281816103a2015281816104f90152818161061b01528181610a1f01528181610cc701528181610dc1015281816111240152818161168201526117f90152611c956000f3fe608060405234801561001057600080fd5b50600436106100ce5760003560e01c80634eb978a41161008c5780638d7ddd90116100665780638d7ddd9014610177578063948cb7191461017f578063cec16f3f14610187578063f9c4fd1b1461018f57600080fd5b80634eb978a4146101545780637d7c2a1c1461015c5780638831c06e1461016457600080fd5b8062a9bb8d146100d357806301ffc9a7146100e85780631014a0c2146101105780633b6612c8146101315780633db77cb8146101395780634dd93bd31461014c575b600080fd5b6100e66100e136600461194a565b610197565b005b6100fb6100f6366004611976565b6104a0565b60405190151581526020015b60405180910390f35b61012361011e3660046119a0565b6104d7565b604051908152602001610107565b610123610617565b6100e66101473660046119a0565b6106d2565b610123610901565b61012361095f565b6100e6610a07565b6100e66101723660046119a0565b610b09565b610123610cc3565b6100e6610d72565b610123610e2f565b610123611120565b600080516020611c4083398151915260001984146102995761024e7f00000000000000000000000000000000000000000000000000000000000000006001600160a01b031663313ce5676040518163ffffffff1660e01b8152600401602060405180830381865afa158015610210573d6000803e3d6000fd5b505050506040513d601f19601f8201168201806040525081019061023491906119b9565b61023f90600a611ad6565b6102499086611ae5565b6111d7565b815463ffffffff191663ffffffff9190911617815560266040518581527f7bc647fe5043209e2019aa3503b79c1b0dd83eb61c56013d373a7584ff6bfb139060200160405180910390a25b60001983146103945761033c7f00000000000000000000000000000000000000000000000000000000000000006001600160a01b031663313ce5676040518163ffffffff1660e01b8152600401602060405180830381865afa158015610303573d6000803e3d6000fd5b505050506040513d601f19601f8201168201806040525081019061032791906119b9565b61033290600a611ad6565b6102499085611ae5565b815463ffffffff919091166401000000000267ffffffff000000001990911617815560276040518481527f7bc647fe5043209e2019aa3503b79c1b0dd83eb61c56013d373a7584ff6bfb139060200160405180910390a25b6000198214610492576104377f00000000000000000000000000000000000000000000000000000000000000006001600160a01b031663313ce5676040518163ffffffff1660e01b8152600401602060405180830381865afa1580156103fe573d6000803e3d6000fd5b505050506040513d601f19601f8201168201806040525081019061042291906119b9565b61042d90600a611ad6565b6102499084611ae5565b815463ffffffff91909116600160401b026bffffffff00000000000000001990911617815560286040518381527f7bc647fe5043209e2019aa3503b79c1b0dd83eb61c56013d373a7584ff6bfb139060200160405180910390a25b5061049b611240565b505050565b60006001600160e01b031982166301ffc9a760e01b14806104d157506001600160e01b03198216631e670a9760e21b145b92915050565b6040516370a0823160e01b815230600482015260009081906001600160a01b037f000000000000000000000000000000000000000000000000000000000000000016906370a0823190602401602060405180830381865afa158015610540573d6000803e3d6000fd5b505050506040513d601f19601f820116820180604052508101906105649190611b07565b90508281106105d05760405162461bcd60e51b815260206004820152602d60248201527f4e6f206e65656420746f20726566696c6c207468652077616c6c657420666f7260448201526c081d1a1a5cc81c185e5b595b9d609a1b60648201526084015b60405180910390fd5b60006105da610901565b9050816105e5611120565b6105ef9086611b20565b6105f99190611b33565b925080831115610607578092505b610610836112e5565b5050919050565b60007f00000000000000000000000000000000000000000000000000000000000000006001600160a01b031663313ce5676040518163ffffffff1660e01b8152600401602060405180830381865afa158015610677573d6000803e3d6000fd5b505050506040513d601f19601f8201168201806040525081019061069b91906119b9565b6106a690600a611ad6565b600080516020611c40833981519152546106cd9190600160401b900463ffffffff16611b46565b905090565b600060001982036107d757604051636c82bbbf60e11b81523060048201527f00000000000000000000000000000000000000000000000000000000000000006001600160a01b03169063ba08765290829063d905777e90602401602060405180830381865afa158015610749573d6000803e3d6000fd5b505050506040513d601f19601f8201168201806040525081019061076d9190611b07565b30306040518463ffffffff1660e01b815260040161078d93929190611b65565b6020604051808303816000875af11580156107ac573d6000803e3d6000fd5b505050506040513d601f19601f820116820180604052508101906107d09190611b07565b905061086f565b604051632d182be560e21b81526001600160a01b037f0000000000000000000000000000000000000000000000000000000000000000169063b460af949061082790859030908190600401611b65565b6020604051808303816000875af1158015610846573d6000803e3d6000fd5b505050506040513d601f19601f8201168201806040525081019061086a9190611b07565b508190505b604051636e553f6560e01b8152600481018290523060248201527f00000000000000000000000000000000000000000000000000000000000000006001600160a01b031690636e553f65906044015b6020604051808303816000875af11580156108dd573d6000803e3d6000fd5b505050506040513d601f19601f8201168201806040525081019061049b9190611b07565b600061092c7f0000000000000000000000000000000000000000000000000000000000000000611484565b6109557f0000000000000000000000000000000000000000000000000000000000000000611484565b6106cd9190611b20565b60008061096a610901565b600080516020611c4083398151915280549192509060009061099c90600160601b90046001600160801b031684611b84565b90506109a783611556565b82546001600160801b0391909116600160601b02600160601b600160e01b03199091161782556040518181527f731c439c5bae15be1344eec709967e046b4f7d3f7e37abeffc5247f448fa18bf9060200160405180910390a19392505050565b6040516370a0823160e01b81523060048201526000907f00000000000000000000000000000000000000000000000000000000000000006001600160a01b0316906370a0823190602401602060405180830381865afa158015610a6e573d6000803e3d6000fd5b505050506040513d601f19601f82011682018060405250810190610a929190611b07565b9050610a9c610617565b811115610ac057610abd610aae611120565b610ab89083611b33565b6115bf565b50565b610ac8610cc3565b811015610abd576000610af4610adc610901565b83610ae5611120565b610aef9190611b33565b61161b565b90508015610b0557610b05816112e5565b5050565b6000198103610b9d5760405163ce96cb7760e01b81523060048201527f00000000000000000000000000000000000000000000000000000000000000006001600160a01b03169063ce96cb7790602401602060405180830381865afa158015610b76573d6000803e3d6000fd5b505050506040513d601f19601f82011682018060405250810190610b9a9190611b07565b90505b604051632d182be560e21b81526001600160a01b037f0000000000000000000000000000000000000000000000000000000000000000169063b460af9490610bed90849030908190600401611b65565b6020604051808303816000875af1158015610c0c573d6000803e3d6000fd5b505050506040513d601f19601f82011682018060405250810190610c309190611b07565b50604051636e553f6560e01b8152600481018290523060248201527f00000000000000000000000000000000000000000000000000000000000000006001600160a01b031690636e553f65906044015b6020604051808303816000875af1158015610c9f573d6000803e3d6000fd5b505050506040513d601f19601f82011682018060405250810190610b059190611b07565b60007f00000000000000000000000000000000000000000000000000000000000000006001600160a01b031663313ce5676040518163ffffffff1660e01b8152600401602060405180830381865afa158015610d23573d6000803e3d6000fd5b505050506040513d601f19601f82011682018060405250810190610d4791906119b9565b610d5290600a611ad6565b600080516020611c40833981519152546106cd919063ffffffff16611b46565b610d7a611633565b60405163095ea7b360e01b81526001600160a01b037f00000000000000000000000000000000000000000000000000000000000000008116600483015260001960248301527f0000000000000000000000000000000000000000000000000000000000000000169063095ea7b3906044015b6020604051808303816000875af1158015610e0b573d6000803e3d6000fd5b505050506040513d601f19601f82011682018060405250810190610abd9190611bab565b600080600080516020611c408339815191526040516370a0823160e01b81523060048201529091506000906001600160a01b037f0000000000000000000000000000000000000000000000000000000000000000169063ba0876529082906370a0823190602401602060405180830381865afa158015610eb3573d6000803e3d6000fd5b505050506040513d601f19601f82011682018060405250810190610ed79190611b07565b30306040518463ffffffff1660e01b8152600401610ef793929190611b65565b6020604051808303816000875af1158015610f16573d6000803e3d6000fd5b505050506040513d601f19601f82011682018060405250810190610f3a9190611b07565b604051636c82bbbf60e11b81523060048201529091506000906001600160a01b037f0000000000000000000000000000000000000000000000000000000000000000169063d905777e90602401602060405180830381865afa158015610fa4573d6000803e3d6000fd5b505050506040513d601f19601f82011682018060405250810190610fc89190611b07565b9050600081600003610fdb57600061106e565b604051635d043b2960e11b81526001600160a01b037f0000000000000000000000000000000000000000000000000000000000000000169063ba0876529061102b90859030908190600401611b65565b6020604051808303816000875af115801561104a573d6000803e3d6000fd5b505050506040513d601f19601f8201168201806040525081019061106e9190611b07565b8454909150600160601b90046001600160801b031661108d8285611b20565b6110979190611b84565b8454600160601b600160e01b031916855594507fb82d4e0870bf4ae7236ad1de74d6612d04d1b805b47d98c2f40088a193d87c656110d58483611b20565b60405190815260200160405180910390a16040518581527f731c439c5bae15be1344eec709967e046b4f7d3f7e37abeffc5247f448fa18bf9060200160405180910390a15050505090565b60007f00000000000000000000000000000000000000000000000000000000000000006001600160a01b031663313ce5676040518163ffffffff1660e01b8152600401602060405180830381865afa158015611180573d6000803e3d6000fd5b505050506040513d601f19601f820116820180604052508101906111a491906119b9565b6111af90600a611ad6565b600080516020611c40833981519152546106cd9190640100000000900463ffffffff16611b46565b600063ffffffff82111561123c5760405162461bcd60e51b815260206004820152602660248201527f53616665436173743a2076616c756520646f65736e27742066697420696e203360448201526532206269747360d01b60648201526084016105c7565b5090565b600080516020611c40833981519152805463ffffffff640100000000820481169116118015906112885750805463ffffffff600160401b820481166401000000009092041611155b610abd5760405162461bcd60e51b815260206004820152602860248201527f56616c69646174696f6e3a204c6971756964697479206c696d69747320617265604482015267081a5b9d985b1a5960c21b60648201526084016105c7565b6112ee816116b1565b60405163ce96cb7760e01b815230600482015260009061137f9083906001600160a01b037f0000000000000000000000000000000000000000000000000000000000000000169063ce96cb7790602401602060405180830381865afa15801561135b573d6000803e3d6000fd5b505050506040513d601f19601f82011682018060405250810190610aef9190611b07565b9050801561141c57604051632d182be560e21b81526001600160a01b037f0000000000000000000000000000000000000000000000000000000000000000169063b460af94906113d790849030908190600401611b65565b6020604051808303816000875af11580156113f6573d6000803e3d6000fd5b505050506040513d601f19601f8201168201806040525081019061141a9190611b07565b505b6114268183611b33565b15610b05576001600160a01b037f00000000000000000000000000000000000000000000000000000000000000001663b460af946114648385611b33565b30306040518463ffffffff1660e01b81526004016108be93929190611b65565b6040516370a0823160e01b81523060048201526000906001600160a01b038316906307a2d13a9082906370a0823190602401602060405180830381865afa1580156114d3573d6000803e3d6000fd5b505050506040513d601f19601f820116820180604052508101906114f79190611b07565b6040518263ffffffff1660e01b815260040161151591815260200190565b602060405180830381865afa158015611532573d6000803e3d6000fd5b505050506040513d601f19601f820116820180604052508101906104d19190611b07565b60006001600160801b0382111561123c5760405162461bcd60e51b815260206004820152602760248201527f53616665436173743a2076616c756520646f65736e27742066697420696e20316044820152663238206269747360c81b60648201526084016105c7565b6115c881611768565b604051636e553f6560e01b8152600481018290523060248201527f00000000000000000000000000000000000000000000000000000000000000006001600160a01b031690636e553f6590604401610c80565b600081831061162a578161162c565b825b9392505050565b61163b6117f7565b60405163095ea7b360e01b81526001600160a01b037f00000000000000000000000000000000000000000000000000000000000000008116600483015260001960248301527f0000000000000000000000000000000000000000000000000000000000000000169063095ea7b390604401610dec565b600080516020611c4083398151915280546116e5906116e090600160601b90046001600160801b03168461161b565b611556565b81548290600c90611707908490600160601b90046001600160801b0316611bcd565b92506101000a8154816001600160801b0302191690836001600160801b031602179055507fb82d4e0870bf4ae7236ad1de74d6612d04d1b805b47d98c2f40088a193d87c658260405161175c91815260200190565b60405180910390a15050565b600080516020611c4083398151915261178082611556565b81548290600c906117a2908490600160601b90046001600160801b0316611bed565b92506101000a8154816001600160801b0302191690836001600160801b031602179055507f0f0cdeac88e111e1dd9b9f043e8c671053dedfbaeccabfb144fd51a4f870fcf48260405161175c91815260200190565b7f00000000000000000000000000000000000000000000000000000000000000006001600160a01b0316306001600160a01b0316634d15eb036040518163ffffffff1660e01b8152600401602060405180830381865afa15801561185f573d6000803e3d6000fd5b505050506040513d601f19601f820116820180604052508101906118839190611c22565b6001600160a01b031663e5a6b10f6040518163ffffffff1660e01b8152600401602060405180830381865afa1580156118c0573d6000803e3d6000fd5b505050506040513d601f19601f820116820180604052508101906118e49190611c22565b6001600160a01b03161461192b5760405162461bcd60e51b815260206004820152600e60248201526d082e6e6cae840dad2e6dac2e8c6d60931b60448201526064016105c7565b600080516020611c4083398151915280546001600160e01b0319169055565b60008060006060848603121561195f57600080fd5b505081359360208301359350604090920135919050565b60006020828403121561198857600080fd5b81356001600160e01b03198116811461162c57600080fd5b6000602082840312156119b257600080fd5b5035919050565b6000602082840312156119cb57600080fd5b815160ff8116811461162c57600080fd5b634e487b7160e01b600052601160045260246000fd5b600181815b80851115611a2d578160001904821115611a1357611a136119dc565b80851615611a2057918102915b93841c93908002906119f7565b509250929050565b600082611a44575060016104d1565b81611a51575060006104d1565b8160018114611a675760028114611a7157611a8d565b60019150506104d1565b60ff841115611a8257611a826119dc565b50506001821b6104d1565b5060208310610133831016604e8410600b8410161715611ab0575081810a6104d1565b611aba83836119f2565b8060001904821115611ace57611ace6119dc565b029392505050565b600061162c60ff841683611a35565b600082611b0257634e487b7160e01b600052601260045260246000fd5b500490565b600060208284031215611b1957600080fd5b5051919050565b808201808211156104d1576104d16119dc565b818103818111156104d1576104d16119dc565b6000816000190483118215151615611b6057611b606119dc565b500290565b9283526001600160a01b03918216602084015216604082015260600190565b8181036000831280158383131683831282161715611ba457611ba46119dc565b5092915050565b600060208284031215611bbd57600080fd5b8151801515811461162c57600080fd5b6001600160801b03828116828216039080821115611ba457611ba46119dc565b6001600160801b03818116838216019080821115611ba457611ba46119dc565b6001600160a01b0381168114610abd57600080fd5b600060208284031215611c3457600080fd5b815161162c81611c0d56fe2285f21cf946f4f139f84d60d1bd42e41b7cecbb3685384f294f426ac09f5f46a2646970667358221220ed83f68147792d5e060d3d630c126909bdd66d5acb458d2f2a96907fd7065be464736f6c6343000810003345524334363236506c75735661756c7441737365744d616e616765723a207661",
  "linkReferences": {},
  "deployedLinkReferences": {}
}